:020000041000EA
:1000000000B5324B212058609868022188439860DF
:10001000D860186158612E4B002199600221596106
:100020000121F02299502B49196001219960352056
:1000300000F044F80222904214D00621196600F024
:1000400034F8196E01211966002018661A6600F04E
:100050002CF8196E196E196E052000F02FF8012189
:100060000842F9D1002199601B49196000215960AB
:100070001A491B48016001219960EB211966A021F2
:10008000196600F012F800219960164914480160C1
:100090000121996001BC002800D000471248134993
:1000A000086003C880F30888084703B5996A0420EC
:1000B0000142FBD001200142F8D103BD02B5186610
:1000C0001866FFF7F2FF186E186E02BD00000240BE
:1000D000000000180000070000035F00212200005C
:1000E000F4000018222000A00001001008ED00E03C
:1000F00000000000000000000000000074B24E7A12
:1001000000200420F7010010C3010010C5010010F9
:10011000C1010010C1010010C1010010C101001097
:10012000C1010010C1010010C1010010C701001081
:10013000C1010010C1010010C9010010CB01001065
:10014000CD010010CD010010CD010010CD01001037
:10015000CD010010CD010010CD010010CD01001027
:10016000CD010010CD010010CD010010CD01001017
:10017000CD010010CD010010CD010010CD01001007
:10018000CD010010CD010010CD010010CD010010F7
:10019000CD010010CD010010CD010010CD010010E7
:1001A000CD010010CD010010CD010010CD010010D7
:1001B000CD010010CD010010CD010010CD010010C7
:1001C00000BE00BE00BE00BE00BE00BE00F04BF888
:1001D000103800BEF2EB887190440010B444001057
:1001E0003402001090A31AE700202149086006C8D5
:1001F00081F3088810471F48006800282FD10DA4FC
:100200000ECC002902D000F012F8F9E71A491B4A77
:10021000002000E001C19142FCD1194988471949E9
:1002200088471949884700BEFDE701C901C29A42C3
:10023000FBD37047B4440010C0000020F42101201B
:10024000E865011000000420640104204C670110DF
:1002500000100420001004200000000070470B482C
:1002600001F0C6FF0047EFF30580C0B27047000001
:1002700008ED00E0000000D0F8210120683F0120D7
:10028000591B0010790300107D1C00105756000008
:1002900006005250ABB360533C430010060052506E
:1002A000861C03024C430010060052505422A29DAB
:1002B0005C43001005005250DE65F4684C67011085
:1002C000F8B5C04610B5064C2378002B07D1054B76
:1002D000002B02D0044800E000BF0123237010BDB2
:1002E000F82201200000000050420010044B10B51D
:1002F000002B03D00349044800E000BF10BDC046F6
:1003000000000000FC22012050420010F8B5174CFC
:100310000B21200002F026FEA727A521144B002563
:100320009C46144E8900BF0000E020BF6358EFF3E5
:10033000108072B61A68002AFCD0BFF35F8FE35BAF
:10034000A25B9B1A03D56246A25A0132D3186258A7
:10035000BFF35F8F156080F31088002BE5D020007D
:1003600002F04EFE200003F04BFFC0466C29012036
:10037000A20200009E020000F0B5DE464546574648
:100380004E46E0B50D2087B001F0DAFE0A2000F0FD
:1003900067FF7D4D04AAAB6A03A90193019805ABE1
:1003A00000F05CF9002803D10199784801F068FC5D
:1003B0000499059A039800F015F900F005FA152044
:1003C00000F030FAD02380221B0692035A62704854
:1003D00002F0F2FB6F4C2422200000214030256007
:1003E00002F0BAFA6C4BE36301236364DB18A36485
:1003F0000A33E36406332365023B6365023BA3656E
:1004000000F0CCFA050000F0C9FA29000200200033
:1004100002F0DEFC614802F0CFFB614802F0B2FC62
:10042000604802F0C9FB604C604B200005A90593B1
:1004300001F090FA5E4B200005A9059301F08AFABD
:100440005C4B200005A9059301F084FA5A4B20006B
:1004500005A9059301F07EFA03F032FD8821FF31F2
:1004600001F0F4FE554C6439218003F029FD382158
:10047000FF3101F0EBFE524B64399A46514B524D1D
:100480009946524B524E019300239846618047464D
:10049000504B1DE003F014FD8821FF3101F0D6FE22
:1004A0006439298103F00CFD3821FF3101F0CEFEC3
:1004B00042466439484B6981D20700D4454B042237
:1004C0009446019A0C350432E2441836E144019214
:1004D0002B6007232B71063B6B71AF71EF7103F03B
:1004E000EFFC0323C417A40F00191840041B631C5E
:1004F0009B4603F0E5FC80231B02184201D1E34335
:100500009B465A46019B1A6003F0DAFC0323C4178A
:10051000A40F00191840041B631C9B4603F0D0FC79
:1005200080231B02184201D1E3439B465A464B46A7
:100530001A6003F0C5FC0323C417A40F0019184068
:10054000041B631C9B4603F0BBFC80231B02184268
:1005500001D1E3439B4653465A461A601F4B7760CE
:1005600043441F7080235B023360336101239C4648
:10057000E0444346B760F7607761412B8AD1184861
:1005800002F01AFB03F054FE701100208C420010A0
:10059000504200106C2901200000205060420010E1
:1005A0000D03001070420010102C01203C3301207C
:1005B000BC3501203C380120BC3A01201C2601201A
:1005C00018250120202C01202026012014240120A0
:1005D000242D0120E8960020E8140020282901207D
:1005E000C0420010F0B583B005000E00140000F00A
:1005F000BFF9002801D003B0F0BD154F01223B0028
:1006000001210097053001F059FB33002A000094C6
:100610000121104801F040FD21002800714301F044
:100620003DFE04000C4B002200930221042001F047
:1006300045FB2300002201210094052001F03EFB30
:100640003B00022200210097062001F037FBD2E791
:10065000006CDC0200800240001BB700F0B5DE46F3
:1006600057464E464546E0B5070083B004209B46FA
:100670000091019201F00AFDFA21890001F00EFEBD
:1006800032238246FF33994686005644B6014C4BCE
:100690004C4AF318072493420BD901235B429C4632
:1006A0005346E144F61A4B46002BF0D100205AE0A5
:1006B000012421003000614301F0F0FD874259D050
:1006C000631E9846012CE8D01D00654330002900C8
:1006D00001F0E4FD874251D0A31E9846022CE7D0DA
:1006E0002D1B2900300001F0D9FD874249D0E31EBF
:1006F0009846032C4BD02D1B2900300001F0CEFD75
:10070000874246D0231F9846042C48D02D1B290031
:10071000300001F0C3FD874243D0631F9846052C8B
:1007200045D02D1B2900300001F0B8FD874240D094
:10073000062C42D03000E91F01F0B0FD06248742AC
:10074000B7D10029B5D101230724984673019B1B1B
:100750009B009E19009BF6001E60019B42461C6098
:100760005B4601201A6003B03CBC90469946A24605
:10077000AB46F0BD0029A3D1A046E7E70029ABD1E5
:10078000E4E70029E2D0E31E9846032CB3D102240B
:100790008FE70029DAD0231F9846042CB6D1032412
:1007A00087E70029D2D0631F9846052CB9D10424CD
:1007B0007FE70029CAD0062CBCD1052479E7C046C2
:1007C000508EF4FF50F80C0010B502F06DFA10BD19
:1007D000094A830094464022634410B51C68C00057
:1007E0006240C02414408022520113431C60034B1A
:1007F0009C466044416010BD04C00140004001407F
:10080000074BC0009C466044036809025940C0235E
:100810009B00194080235B01184301607047C0466C
:10082000044001400123D022834012069362936169
:10083000094A83009446402263441968C0004A4034
:10084000C02111408022520113431960034B9C4682
:10085000052360444360704704C0014000400140EC
:10086000EFF3108072B6034A1368002BFCD0BFF37D
:100870005F8F70472C0100D0BFF35F8F0022024BC7
:100880001A6080F3108870472C0100D0F8B5EFF3A0
:10089000108772B60E4E3368002BFCD0BFF35F8F0B
:1008A000CB08C4180725A446C45C01230D40AB4007
:1008B00018002040234208D1624623431370BFF33F
:1008C0005F8F306087F31088F8BD100001F0D8F911
:1008D0002C0100D0F8B5CE4647468C4680B5EFF3E4
:1008E000108872B6214D2C68002CFCD0BFF35F8FAE
:1008F0009A422CD8D4080721055D0619012411401D
:100900008C402C421FD007218946063909E0D408C3
:10091000055D06194C460F001440A7403C002F42CD
:1009200011D001329342F2D201204042BFF35F8FD7
:1009300000220E4B1A6088F3108800280FDB0CBCD5
:1009400090469946F8BD2C4310003470EEE7BFF393
:100950005F8F00232B6088F310880120404263469C
:10096000002BECD0089801F08BF9C0462C0100D088
:10097000024B18688007C00F7047C04600C0064091
:100980000021044B044ABFF35F8F02C39342FAD1A4
:100990007047C046000100D0800100D0044A1078A2
:1009A000431CDBB2172B00D9102313707047C046CD
:1009B000E818012001238340002904D0034A136072
:1009C000034A13607047034A1360FBE780E200E0CC
:1009D00000E100E080E100E001228240034B1B685F
:1009E0001340581E8341D8B27047C04600E100E072
:1009F000024B10309B688000C058704700ED00E04B
:100A000070B50D00EFF3108672B60F4A1368002B15
:100A1000FCD0BFF35F8F0D4B10309B6884001B59D7
:100A20000B4A934203D09D4201D001F041F9074B9C
:100A30009B681D51BFF35F8FBFF35F8F0022024B96
:100A40001A6086F3108870BD240100D000ED00E02C
:100A5000CD010010F0B5DE4657464E464546E0B59E
:100A60000C0083B0EFF3108A72B65A4A1368002B59
:100A7000FCD0BFF35F8F1022914681444A46564B0B
:100A800096009B689D59554B98469D4205D0A542BE
:100A900016D0534FEB1B2F2B14D94F4B9B689D51F6
:100AA000BFF35F8FBFF35F8F00224A4B1A608AF358
:100AB000108803B03CBC90469946A246AB46F0BDB8
:100AC0001D00EAE7012383409B465A46454B1B68BD
:100AD0001A4000925A46444B1A60BFF35F8FFFF7EB
:100AE000C2FB0190002803D0814501D001F0E0F85D
:100AF00001232A009A4393689C4208D160E04B008E
:100B00005B189B00FB189968A14211D01A000621BE
:100B100051560029F3DA009B002B05D05A46334B7F
:100B20001A60304B1A60B8E75A462F4B1A60B4E788
:100B300006215956002922DB4A00501880003C1833
:100B40008046A0689860E079D87106202056987198
:100B5000A0797F2824D8A488F81A64052415444471
:100B60000019E0240005400D24022043988052180B
:100B70001F4B9200BF181A781970BA71CBE7019910
:100B8000002910D1FF3191711A49918018490A78D2
:100B90009A71194ADB1B5B415A43120D0A70BAE77E
:100BA000BD200002E2E7154A1549D21A083A500260
:100BB000400D01439980134952080A43DA80AAE79D
:100BC0000621515613000029B6DA019A002AEAD10B
:100BD0004546DBE7240100D000ED00E0CD01001028
:100BE000EC18012000E100E080E100E080E200E09C
:100BF0001024012000BDFFFFAAAA00002619012031
:100C000000F0FFFF00F8FFFFF8B5012504000543E1
:100C1000FFF729FB0300EFF3108672B621490A683B
:100C2000002AFCD0BFF35F8F1F4A20001F49801AA3
:100C300040414143090D1E489B00876849B2FF5857
:100C4000AF421CD00623D3568B421CD01223D3565E
:100C50008B4222D01E23D3568B4220D02A23D35638
:100C600003208B4210D0134B1A781970A271BFF376
:100C70005F8F00220B4B1A6086F31088F8BD8268E4
:100C80000D48D050EFE7002043001B189B00D218FE
:100C9000FF239371094B9380E5E70120F4E70220DD
:100CA000F2E7C046240100D0EC180120AAAA0000F7
:100CB00000ED00E010240120CD01001000BDFFFF79
:100CC000054B064A1360064A136053609360D36075
:100CD00013615361936170478080808000E400E07D
:100CE00004E400E0024B9C466144890001607047C7
:100CF0004000003483680B4810B584466144624468
:100D0000090112019A18591854684B6801209C4235
:100D100001D802D00020C0B210BD12680B689A4200
:100D2000F9D8F7E7FFFFFF0F0A4B1968EFF31080C0
:100D300072B60A68002AFCD0BFF35F8F1B68BFF34E
:100D40005F8F00221A6080F3108840BF00200021CE
:100D50007047C046F4230120F8B557464E46454635
:100D6000DE46E0B5434D81468A466A68EFF3108857
:100D700072B61368002BFCD0BFF35F8F2E68B47B74
:100D8000002C3ED0670033683F19033FDA195378CF
:100D9000B373002B00D1F37300239370537013705F
:100DA000A968354A8C464946A2181201624411606E
:100DB000514651603149D36091603268D2199370C5
:100DC00053701370737B9B46002B35D022001900A3
:100DD000B068736898473268002820D05B46584650
:100DE0005B005B44D719033BB870D118D35C002B70
:100DF00000D07B705B460C7073735C451DD0002681
:100E000026E06B68BFF35F8F1C6088F310880120B9
:100E100040423CBC90469946A246AB46F8BD5B4674
:100E20005B005B44033BD3189C70D119D25D002A50
:100E300000D05A705B460B7074734A465346287D47
:100E400000F0F2FA061EDAD02100286800F032FD28
:100E5000EB686A681B19013B1B78BFF35F8F0021A9
:100E6000116088F310880020002ED2D11802204390
:100E7000CFE7C04634190120FFFFFF0F290D0010F6
:100E8000F8B5574645464E46DE46E0B599460CABAA
:100E900019780DAB1B78050090469A460768002923
:100EA00012D1BE7B002E45D074003B68A419033CD0
:100EB0001B195A783100BA73002A00D1FA73002244
:100EC0009A705A701A7003E00E004C006418033CCC
:100ED0002C4B00229C46AB6861449C46434609016A
:100EE00061440B604B464B600A9B8B600B9BCB6055
:100EF0003B681B199A705A701A707B7B9B46002BBB
:100F00002CD032005946B8687B6898473A68002868
:100F100017D05B4658465B005B441419033BA07036
:100F2000D118D35C002B00D063705B460E707B73CE
:100F3000B34514D030003CBC90469946A246AB461F
:100F4000F8BD5B465B005B44033BD3189E701119F0
:100F5000125D002A00D05A705B460B707E734246C9
:100F60004B46287D00F060FA041E06D05346002B45
:100F700003D13100286800F09DFC0E9B002BD9D0D6
:100F80001C70D7E7FFFFFF0FF0B5DE464E46574611
:100F900045460023E0B58DB00A936B4B8200D358D1
:100FA0000B90994600239B464B46079300F0DCF9D3
:100FB000079C06000F006268EFF3108572B6136895
:100FC000002BFCD022000794BFF35F8F2468637B63
:100FD0009946002B67D092685C4B90464B441B01AE
:100FE000984443461A685B6810001900801BB94199
:100FF00000295FDD0B9800F017FA002300269846C1
:1010000000279A46079C6368BFF35F8F5A461A60B1
:1010100085F310885346002B08D10028C6D10DB0A7
:101020003CBC90469946A246AB46F0BD0A9B414661
:1010300018024B461843D047089009916268EFF3B5
:10104000108572B61368002BFCD00794BFF35F8F36
:101050000899099A002A48DB114303D0079B1B69B2
:10106000002B5DD1079B1B68DA7B002A07D051005B
:101070008A1819688C4649466244033A51704A46B8
:10108000DA734B46079A013BD168CA5C0132CA54F5
:101090005B46079A13615368BFF35F8F5A461A6025
:1010A00085F3108882E700230026984600279A4699
:1010B0000020A7E7002901D100289BD100212000B2
:1010C00000F05AFB43461E685F689B68079A9A4681
:1010D0004346DB689846D3684B44013B1B780A9330
:1010E0001B020343136100208CE72369002BB9D056
:1010F00033003C005B1A94411A002300A74219D820
:101100009F421BD059460491012103914946029107
:1011100041460191514607980091FFF7B1FEB7E7AC
:1011200000F022F9089A099B06000F0092197B41F2
:101130009942E5D901225242D317E3E79642E1D919
:1011400001225242D317DDE7E0230120FFFFFF0F0A
:1011500010B5124C6368002B04D00A211048FFF729
:10116000C1FD10BD23000F4A1021206800F022FAB3
:10117000032000F0EDF8032000F0C8F903200A492D
:1011800000F00CF9FFF70AFC084B9C46032360446F
:101190002375074B80006060DC60DEE734190120B6
:1011A000F4230120F50C0010890F001040000034DA
:1011B000E0230120F0B504000D0006267642F71763
:1011C000C64636196F4100B58F4213D810D000F0D3
:1011D000CBF832003B00121A8B41002B14DC002BA1
:1011E00037D02900200000F0C9F804BC9046F0BDBB
:1011F0008642ECD90026002700F0B6F832003B000A
:10120000121A8B41002BEADD30003900FFF7A4FDF4
:101210000028E6DB00239846BC460F4A0F4F7B6A46
:101220009C4504D8B96A8E42DBD99C45D9D1116856
:10123000EFF3108072B60B68002BFCD0BFF35F8F0A
:101240001368BFF35F8F4146196080F3108820BF99
:10125000E5E7002AC5D0D7E7F42301200040054088
:1012600070B5060000F080F8FA2204000D0000239B
:1012700030000021920001F0C7FA001969418D4247
:1012800005D802D0FFF796FF70BD8442FAD901203D
:101290004042C117F6E7C046F0B5D6464F4646462F
:1012A000C0B5EFF305833F22134018001038EFF369
:1012B000108C72B6204D2A68002AFCD0BFF35F8FD5
:1012C0000122110081401D4C884661631C491700B2
:1012D0000E788A463100C1400F400A4215D01949A4
:1012E0008200646A51588C4219D3174BD258434636
:1012F0009E4353461E70BFF35F8F00232B608CF319
:101300001088002A06D0904704E0BFF35F8F2F605B
:101310008CF310881CBC90469946A246F0BD0B4A3F
:101320009B00904643441A681A60BFF35F8F002306
:101330002B608CF31088EDE7280100D000400540B9
:1013400011240120F823012050230120D03F054023
:1013500010B50100024A0348FFF798FA10BDC046D5
:10136000D04200100E240120034B596A0A00986AEB
:10137000596A8A42FAD1704700400540064A536ACA
:101380009942FCD807D1044B02E05A6A914202D13B
:101390009A6A8242F9D370470040054070B5040054
:1013A0000D00EFF3108672B61A4A1368002BFCD0BA
:1013B000BFF35F8F002D1BD02000FFF719FB1649EC
:1013C00081420AD02000FFF71BFB01212000FFF71C
:1013D000F1FA0123A340114A1360114BA400E55018
:1013E000BFF35F8F00220B4B1A6086F3108870BD2D
:1013F0000B4BA200D5500122A2400A4920000B78D5
:1014000093430B700449FFF725FB00212000FFF7F1
:10141000D1FAE5E7280100D09912001038600540A4
:101420005023012011240120F0B54F46D6464646F0
:10143000C0B50700304C616A0D00A66A616AA94216
:10144000FAD18B4208D805D001201CBC90469946A1
:10145000A246F0BDB242F7D9EFF3108972B6274821
:1014600001680029FCD0BFF35F8F01252449BD40EE
:101470008C460978204C0E002E438846F1B28A46ED
:10148000614650460870391D1E48890065630A513F
:10149000B9000B50216A0020294219D0616A080066
:1014A000A66A616A8142FAD18B4219D801D1B2424F
:1014B00016D8C2451DD0104B1F201D625D6301234D
:1014C0000740BB40104A1E381360634642461A70FC
:1014D000BFF35F8F0022094B1A6089F31088B4E7CD
:1014E0000020BFF35F8F0022044B1A6089F310883D
:1014F000ABE70120ECE7C04600400540280100D0E2
:1015000011240120F823012080E200E010B5EFF360
:10151000108472B60A490B68002BFCD0BFF35F8FB2
:1015200001238340074A0848136202789A430270F5
:10153000BFF35F8F00230B6084F3108810BDC0469B
:10154000280100D0004005401124012070B505009D
:101550000E001400002924D0002A24D080686B6873
:101560009847296800280ED063001B197200033BBE
:101570009219CB18033A9E7088188A5C002A14D1FD
:10158000047030000EE073009B196200033B1219D7
:10159000CB18033A9C7088188A5C002A00D05A70D5
:1015A0000670200070BD0800FCE75A70047030001F
:1015B000F8E7C04630B583600023CCB243730133F3
:1015C000047342608373C4730D000068012C06D954
:1015D000421C0133DBB2137003329C42F9D1FF216C
:1015E00029404B005918002340180338437030BD80
:1015F000F8B5CE46474606000C0080B5002907D056
:101600004D0003686D18033D5A195778002F04D117
:1016100020000CBC90469946F8BD7900C9190339E1
:10162000884643445978894600215970517073683F
:101630003A002100806898473368002814D0424659
:101640009A18947059195B5D002B00D053700F707D
:10165000270049463000FFF7CBFF39000200300079
:10166000FFF774FF0400D3E7424641465D19AF70AF
:101670009A185B5C002B00D06B701470E9E7C046D1
:10168000F0B557464546DE464E46E0B50D006B00C8
:1016900001685B19DF1E0400C85D83B00192CA199E
:1016A00000284CD043001B18033BCB185E78B4468F
:1016B000002E16D1019E002E3ED0E67B002E04D0D7
:1016C00073009B19CB18033B5D70E57300282FD185
:1016D0000023537003B03CBC90469946A246AB46EB
:1016E000F0BD72006244033A89184A78904600229D
:1016F0004A7091465A70010032002000FFF726FF21
:1017000043468246002B07D05B0021684344033BDD
:10171000CB185A78002A16D1424651462000FFF7CE
:1017200015FF2168019BCA19002BC6D10028CFD014
:1017300043001B18033BCB1800219970C8E7019B9D
:10174000002BBAD1C4E75000801803380918487834
:10175000834648464870587041462000FFF7F6FE21
:10176000594680462000FFF743FF41460200200013
:10177000FFF7ECFE8046CFE7F0B54E464546DE4625
:101780005746E0B5467B040075000068AD19033D7F
:1017900083B00191415D421900294ED04B005B1886
:1017A000033BC3185F78BC46002F18D1019D002D64
:1017B00040D0E57B002D04D06B005B19C318033BC0
:1017C0005E70E673002931D10023300053706173DD
:1017D00003B03CBC90469946A246AB46F0BD7A00A9
:1017E0006244033A80184278934600224270914640
:1017F0005A7020003A00FFF7A9FE5B468046002B96
:1018000007D05B0021685B44033BCB185A78002A61
:1018100017D15A4641462000FFF798FE019B010070
:1018200020684219002BC4D10029CDD04B005B1891
:10183000033BC31800209870C6E7019B002BB8D16A
:10184000C2E7500080180338091848788246484695
:101850004870587059462000FFF778FE534683467B
:10186000002B07D05B0021685344033BCB185A7808
:10187000002A06D1594652462000FFF767FE8346EC
:10188000C7E7500080180338091848464F78487059
:10189000587051462000FFF759FE3900814620005C
:1018A000FFF7A6FE494602002000FFF74FFE8246E2
:1018B000E0E7C04670B5040000292CD0437B8B4282
:1018C0002ED0056848004018033828188278002A6E
:1018D00021D053009B18033BEA5CEE188A4202D1E8
:1018E0001BE0002A08D053009B18033BEB185A78E2
:1018F0008A42F6D142785A700023012283704370E5
:101900002000FFF7BDFE617B02002000FFF71EFEF6
:101910006073012000E0002070BD43783370EBE776
:1019200001221900FFF7ACFE60730120F4E7C04606
:1019300070B516000D0019000400FFF7D3F9290057
:10194000701C00F0E1FF0023E681A5816060A360C8
:1019500070BDC046F8B50400002709E0E2899A424C
:1019600018D12368BFF35F8F1F6085F3108820BFF5
:101970002368EFF3108572B61A68002AFCD0BFF313
:101980005F8F20896389C31AE8D5E689721CD31852
:101990009E42E6D06368A2899C465043604400F0B2
:1019A000E1FF002210002389E18901339BB29942B3
:1019B000504141420B4023812368BFF35F8F1A607F
:1019C00085F3108840BFF8BD70B504000800002101
:1019D00008E0002B18D12368BFF35F8F196085F3EF
:1019E000108820BF2368EFF3108572B61A68002AAA
:1019F000FCD0BFF35F8F668923899B1BE9D5E28901
:101A00000132D318002BE6D0A28963685643991996
:101A100000F0A8FF002210006389E18901339BB226
:101A20009942504141420B4063812368BFF35F8F6D
:101A30001A6085F3108840BF70BDC04610B5040021
:101A4000FEF7ACFF01002000FFF74CF9FF232371E4
:101A5000BFF35F8F10BDC04610B50400FEF79EFFB8
:101A600001002000FFF73EF9FF23A380BFF35F8F43
:101A700010BDC046F8B5040006200D0000F006FBBE
:101A8000002845D02B4B2C49E3185A425341802261
:101A9000D20394465B421340284A63441360284AA9
:101AA000136018008A689043FBD1224B8021E31811
:101AB0005A425341234A5B0049000620995200F0E4
:101AC000E5FA2900C00000F0E9FBC30921D1402755
:101AD0000122260080256262A36200232C36AD011C
:101AE00035432B60062000F0D1FA3900800000F069
:101AF000D5FB6023E26A53406E221A4080235B01CB
:101B000033431A60104B236310232B600D3BA364F7
:101B1000F8BD0E4A934203D900230D4F0D4AD8E772
:101B20007F221040013040089F011A003F18030037
:101B3000CFE7C0460080FCBF00C0004000E000408E
:101B400000F000403C3D012001030000FEFF0000CA
:101B5000C0FF3F00FFFF00002C4B2D4A70B51A60FC
:101B60002C4A2D4B2D491A6010008B689843FBD1ED
:101B70002B4C2C4B9C4209D2013B1D1BAD0801355F
:101B8000AD002D1908CC9847AC42FBD100F020F9EC
:101B9000254A214B1A60214A9368DB018033FBD12F
:101BA0004022224B224C234D9A675A671A67DA6605
:101BB000AC4208D223682000002B21D00834FFF764
:101BC0004BFFAC42F6D31C4C1C4DA168C022280030
:101BD00000F0C8FEA560FEF7D3FEFFF771F8FFF72F
:101BE000B7FA174C174B9C4209D2013B1D1BAD089D
:101BF0000135AD002D1908CC9847A542FBD170BD29
:101C00000834FFF71BFFAC42D4D3DCE700E0004010
:101C1000BFCDFBFEFE7F3C0000F0004000C0004056
:101C2000E0210120F0210120FFFFFF0100F0014031
:101C3000D0210120E021012000ED00E00000002083
:101C4000F0210120F4210120094A03001068002836
:101C500005D00849C3188B4207D81360704706485F
:101C60000449C31810608B42F7D901204042F5E7C0
:101C7000D823012000000420683F012000BEFDE7BA
:101C80000FB400B5084883B000F096FF049B002B0A
:101C900007D005A91800019100F084FA034800F06C
:101CA0008BFF00BEFDE7C046F44200100443001065
:101CB00010B50148FFF7E4FF08430010F0B54546B2
:101CC000DE4657464E46E0B583B001920C9A0500B9
:101CD00088469A4200D974E01A0E93461E023000DC
:101CE000002359460C9A00F01BFB374B6C009C46B6
:101CF0006419A400644463680700834200D26060F2
:101D00002B1FDBB29946012B35D9C02380229B01C2
:101D1000234312011A602D4BAD0059599A460029F0
:101D200005D0586900F0BAFA01300138FDD1019AA6
:101D3000236852015340E0221A4080235B01234371
:101D40001A604A46012A2FD9802380229B0123430F
:101D500012011A60300000233A005946676000F013
:101D6000DFFA53465851012003B03CBC90469946D7
:101D7000A246AB46F0BD4346012BC6D1C023032289
:101D80009B0123431A60023AA3681A42FCD0019ACD
:101D9000236852015A40E0231A4080235B01234309
:101DA0001A600A4AAD009246424621685140032219
:101DB0000A401A60012243469A40A3681A42FCD0A6
:101DC000C2E70020D0E7C046008000406023012029
:101DD00030B50C2083B000F0C1F9FEF7C9FD002832
:101DE0000ED0944B944A1A605A609A60DA601A6175
:101DF0005A619A61DA611A62904A5A6203B030BD40
:101E00008F4CA06700F0B2F901228E4B1A60636C10
:101E1000012BFCD103228C4B1A60894A936B012B56
:101E2000FCD101330121894A89480093043300F031
:101E300033F90523874A00930121874800F02CF9E4
:101E4000864B5A68FF2A02D8802252005A608022AC
:101E5000784C7D4B21691201804D1A60002905D014
:101E6000606900F01BFA01300138FDD1E0217B4BA5
:101E700002201A681140802252012A431160196819
:101E8000484003210140116004219A681142FCD0AE
:101E90008022802192012A43090111608022520090
:101EA0005A606F4B23616F4B5968FF2900D85A6005
:101EB00003226C48634B01211A60020093681942A7
:101EC000FCD0E02513681D4080235B0103431D60A7
:101ED00012684A400321114019600221614A936847
:101EE0001942FCD0802380219B0103430901196022
:101EF00080215D4B4900516063615C4B5A68FF2A49
:101F000000D8596080225A4BE1691201574D1A607E
:101F1000002905D0606900F0C1F901300138FDD118
:101F2000E02252490B681A4080235B012B431A6060
:101F3000802380229B012B4312011A6080223E4B9A
:101F400052004A60E3614B4B5968FF2900D85A6040
:101F50008022494B216A1201464D1A60002905D0A2
:101F6000606900F09BF901300138FDD1E022414960
:101F70000B681A4080235B012B431A608023802268
:101F80009B012B4312011A60802380225B004B606F
:101F9000294BD2022362394B5968914200D25A60D0
:101FA0008022374B616A1201344D1A60002905D036
:101FB000606900F073F901300138FDD1E0222F494A
:101FC0000B681A4080235B012B431A608023802218
:101FD0009B012B4312011A608023DB024B60174BDD
:101FE0006362284B5A68FF2A02D8802252005A6046
:101FF0008022254BA1691201224D1A60002905D0CB
:10200000606900F04BF901300138FDD1E0221D4933
:102010000B681A4080235B012B431A6080238022C7
:102020009B012B4312011A6080235B004B600E4B17
:10203000A361E3E660230120006CDC021BB7000013
:10204000008000403CB0004030B00040002F685994
:1020500000800240008C864700C002403080004073
:10206000001BB7003C80004040597307548000407B
:1020700054B000406080004060B000406C80004080
:102080006CB000404880004048B00040014B8000E8
:10209000C058704760230120F8B504000C201700D9
:1020A0001D000E0000F0FAF84101091A8B01591ABF
:1020B000C90009188901380000F0F0F8069A2B04CD
:1020C000120313432268002A21DB194AA218514245
:1020D0004A41802149018C4652420A4015496244D6
:1020E0000A6015490A60154917008D68AF43FBD196
:1020F000C021221D8901114321222660A0600A60AF
:102100002268002AFCDAE36008230B60F8BD3F2256
:1021100021680A40B242D8D1A2681205120D82424B
:10212000D3D1EE21E268C9020A409A42CDD1EDE74F
:102130000040FDBF00E0004000F0004000C0004053
:10214000044B00011B685840F0231840024B1860F4
:102150007047C04600400640005006408023024AB7
:102160009B000343D362704700800540AA23064AC0
:102170001B0113602F230549D360054B1960536879
:10218000002BFCDA7047C0460040024000B0FA0065
:102190000060024010B5002800D110BD00F0BAFC6C
:1021A000FBE7C04610B5094A0300146884B0002C50
:1021B00008D0012200910648524203A9A0470120FD
:1021C00004B010BD00F0F8FC0020F9E7DC2301208A
:1021D0009521001001480421014B18476019012086
:1021E00011220010014B9B68184700006019012064
:1021F000142310B50100188804331B88984710BDBC
:10220000162310B50100188802331B88984710BDAB
:10221000F0B5C64600B5002916D0142304000125E8
:1022200098461827890046184346216818883B8835
:10223000984701C4431E984140420540A642F3D14D
:10224000280004BC9046F0BD0125F9E7124A936FBF
:102250009B0815D29066D166002905D0FFE7FFE7FD
:10226000FFE7516F106F704704B580210906C21750
:102270005140002800D0C84301F0CAFF002104BD2E
:10228000F0B5146E556E576F166FFFF7E3FF1466C7
:10229000556657671667F0BD000000D0114A936F6E
:1022A0009B0813D210665166002905D0FFE7FFE7AF
:1022B000FFE7516F106F704704B5002801D0002070
:1022C000C04301F0A5FF002104BDC046F0B5146E67
:1022D000556E576F166FFFF7E5FF14665566576723
:1022E0001667F0BD000000D094464E4A926F9208E7
:1022F000624601D230E0C046F0B54A4EB56F6D0877
:10230000FCD3346E756E776F366F00F025F8944607
:10231000444A14665566576716676246F0BDC04664
:102320009446404A926F9208624601D258E0C046F5
:10233000F0B53C4EB56F6D08FCD3346E756E776F9B
:10234000366F00F04DF89446364A14665566576766
:1023500016676246F0BDC046002B24DB11D0002971
:102360003EDA00B5C943404200D1013100F038F8EF
:10237000C943404200D10131DB43524200D1013315
:1023800000BD002AEBD1002801D1002905D0002092
:10239000C90FC90701D1C043410800B501F028FFAA
:1023A0000022002300BD00B500290ADBDB435242B6
:1023B00000D1013300F014F8C943404200D101318B
:1023C00000BDC943404200D10131DB43524200D13C
:1023D000013300F005F8DB43524200D1013300BD68
:1023E000002923D1002B18D1002A0CD0BC460D4F58
:1023F00038667A6600210023FFE7FFE7FFE77A6F80
:10240000386F67467047002801D00748010000B5C3
:1024100001F0EEFE0022002300BD02000B000020B0
:1024200000217047000000D0FFFFFFFF002B00D00D
:10243000BFE0130C28D1002AE7D080B4114F3966D1
:102440007A66FFE7FFE730B4040C7B6F396F1B043B
:1024500023433B667A66FFE7FFE7FFE7C04684B2A7
:102460007B6F3D6F1B0423433B667A66FFE7FFE704
:10247000C04600232C042D0C7A6F386F0019694177
:10248000B0BC7047000000D0F0B594460025140E93
:1024900001D112020835140F01D112010435940F35
:1024A00001D192000235D40F01D152000135D40B75
:1024B0000134254F7C66254C3C660E0C93B2FFE739
:1024C000FFE7FFE73C6F6643360C7703BE46734376
:1024D000DF0B5B04C01AB941130C7343DB18C91A34
:1024E000CE086643360CB64493B273431F0F1B01EC
:1024F000C01AB941130C73431F0B1B05C01AB94115
:10250000860D8F023E436643360C092D24DB520AAA
:102510007243801A7703460A6643360C16235B1B08
:10252000DE40DF40BF1964466643821B70460435B7
:1025300006330100D940A840C01900D30131A2429E
:1025400006D20023F0BD0000000000D0FFFFFFFF17
:10255000121B0130F3D3F1E709277F1BFE406446CD
:10256000A2B27243801A00D20139220C7243130CBA
:102570001204821A99410B0070460435133701008A
:10258000F940A840801900D30131002B02D1A242AA
:102590000AD2F0BD013000D30131121BFAD2013B47
:1025A000F8D1A24200D2F0BD013000D30131121B9C
:1025B000F7E7F0B51C0C00D080E00CB400251C0A35
:1025C00004D11B02160E3343120208351C0B04D132
:1025D0001B01160F3343120104359C0B04D19B00E1
:1025E000960F334392000235DC0B02D192185B4107
:1025F00001351C00971864410134464F7C66464CF7
:102600003C660E0CFFE7FFE7FFE7C0463C6F664302
:10261000360C7703BE4697B27743C01B00D2013910
:10262000C01B00D201399FB27743C91BC91B170CCD
:1026300077437E04FF0B801BB941CE086643360CFE
:102640000C2D33DBB644120B1F053A431B0B97B21C
:102650007743C01B00D201399FB27743C91B170CC7
:1026600077433E043F0C801BB941860D8F023E43E9
:10267000664329277F1BFE400C3D7746AF40BF19BC
:1026800030BCA2B2ABB272437343801A9941220CA0
:102690007243130C1204801A994102000B00013797
:1026A000001BA941F9D2781E0021F0BD0C277F1B29
:1026B000FE4077467F0BAF40FF19E0E700245D1C2A
:1026C00007D0144F7D663966FFE7FFE7FFE7FFE7B6
:1026D0003C6F95B29EB265436643401BB141150CF9
:1026E0001E0C6543664336042F0C3E432D04401BED
:1026F000B141994204D202000B0020000021F0BD3C
:1027000001D19042F7D3801A994101349942F2D312
:10271000F6E70000000000D0FFFFFFFF132370B5B5
:102720001D78012D15D010DD2748FFF769FD274CD6
:1027300001008022200000F015F9022D06D0244867
:10274000FFF756FD234B186070BD204C224AA2644F
:10275000F5E72E001D4C204AA3085B421E401D4297
:102760002FD0330022602020B1006118801B0A6046
:102770004A608A60CA600A614A618A61CA610A6203
:102780004A628A62CA620A634A638A63CA630A64E3
:102790004A648A64CA640A654A658A65CA650A66C3
:1027A0004A668A66CA660A674A674008102803D1E3
:1027B0008A67CA67A264C2E71E339B00E250A26424
:1027C000BDE70023CFE7C04653440000403D012051
:1027D0004C330000F0230120DD27001007B56046D0
:1027E00001880A0A0230DF2AFAD1C9B2820804D36A
:1027F000028840880004104300E00068014A5050FD
:10280000039007BD403D012051434343C9188C4606
:10281000110C83B24B4310B4040C614392B280B2EA
:10282000504362431C041B0C001910BC5941130493
:10283000120CC0185141614470470000132310B5B9
:1028400012481C78FFF7DCFC0100012C0AD003DDE4
:1028500080220F4800F086F80E48FFF7C9FC0E4BA7
:10286000186010BD0A4C5422200000F07BF80B4B7E
:102870006365A365E36523666366A366E366236712
:102880006367A367E3672362E361E5E753460000FC
:10289000403E01204C330000F0230120A12800100D
:1028A00007B5604601880A0A0230DF2AFAD1C9B2A8
:1028B000820804D3028840880004104300E00068C6
:1028C000014A5050039007BD403E012070B50400FE
:1028D0000A4E300001F0B4FC200001F017F80500AA
:1028E000300001F07DFC002D05D0054B2C199C42D9
:1028F00001D8280070BD0348FFF7C2F9D02101209C
:10290000000004201443001070B505000C000B4EAD
:10291000300001F095FC2800210000F0BDFF05000B
:10292000300001F05DFC002D05D0054B2C199C42B8
:1029300001D8280070BD0348FFF7A2F9D02101207B
:10294000000004201443001001480421014B1847E3
:102950007019012011220010014B1B68184700005C
:1029600070190120014B5B681847000070190120A5
:10297000030010B508001B681100984710BDC04641
:10298000F8B54746CE4680B5437C07000D001600DB
:10299000002B37D000240020002A1EDD4B1E984655
:1029A0001B4B9946002C2BD043461B5D0D3B5A42D6
:1029B0005341DBB22A5D0A2A13D00134A642F1DC6E
:1029C000864203DD311A3B6828189847AD19013D4E
:1029D0002B780D3B5A4253413B740CBC90469946B0
:1029E000F8BD002BE9D1A04203DA211A3B68281870
:1029F0009847484602213B68013498472000DDE7AC
:102A00003B7CD7E70368110028009847E5E7C046FC
:102A10008C430010F0B557464E464546DE461C0036
:102A2000D023E0B51B061F68354B83B006000D00B0
:102A3000180001A991469A4601F0F2FB8046002851
:102A400008D1019B7FB29F4204D0504601F0F8FBB1
:102A5000012398466B1C03D1300001F05DFA05009C
:102A6000002C2AD1274F284B1C68002C18D04B462D
:102A7000002B24D1254B994602E0E468002C0FD0AE
:102A80002368002BF9D04B461B68002B01D0A342D2
:102A9000F3D120002A003100B847E468002CEFD1C0
:102AA0004346002B28D1681E8541E8B203B03CBCE8
:102AB00090469946A246AB46F0BD154FD3E7134B5F
:102AC00099460A239B4602E0E468002CE8D023687C
:102AD000002BF9D04B461B68002B01D0A342F3D149
:102AE0002A0031002000B8475A466B4620001A7170
:102AF00001A90122B847E7E7504601F071FBD2E790
:102B0000D821012081290010D0230120D4230120C5
:102B100071290010F0B54746CE4680B583B06B46AC
:102B2000DF1CD02338701B061C68204B060001A94F
:102B30001800984601F074FB051E22D01C4B1C683F
:102B4000002C2AD01B4B994602E0E468002C10D0E0
:102B50002368002BF9D04B461B68002B01D0A34201
:102B6000F3D1200001223900FFF70AFFE468002CAE
:102B7000EED1002D11D1300003B00CBC9046994627
:102B8000F0BD019B64B29C420BD0404601F058FB63
:102B9000074B01251C68002CD4D1404601F020FBD6
:102BA000E9E7034B1C68002CCCD1E4E7D8210120D5
:102BB000D0230120D423012070B5040001F0ACF92A
:102BC00000230100050001222000FFF723FF084B2E
:102BD0001C68002C06D06368002B05D09847E46879
:102BE000002CF8D1280070BDE468002CF3D1F9E77F
:102BF000D02301200A4A1368002B05D10CE01A00EB
:102C0000DB680C32002B07D09842F8D1002902D1A2
:102C1000C3681360C16070470029FCD01060FAE7F8
:102C2000D0230120F0B50D1E15DD0E4B0D271A68BF
:102C30000D4B4519D31859424B410C495B005E5E60
:102C400020210478A64207D093691942FCD10130B3
:102C50001460A842F5D1F0BD93691942FCD1176008
:102C6000F2E7C046082401200080FCBF3C3D012063
:102C700030B50500002912DD00201024094B013D6C
:102C80001A6893691C4208D1013093691C42FCD137
:102C900013682B548142F4D130BD0028FCD10320AD
:102CA0004042F9E708240120E12110B50B4B0C4804
:102CB0001B780C4B49021B780B4B1860FEF7DAFEB1
:102CC00002210020FDF784FD02210120FDF780FD97
:102CD00001210648FFF78EFF10BDC046AC4400102E
:102CE00000400340B0440010082401208019012056
:102CF00003BDC04610B50400FDF7E2FFA04710BDBC
:102D0000F0B5040087B00F200D001700FDF764FE3A
:102D1000002106000F20FDF74DFE00230022009247
:102D2000019301230293D0230495059400250020EC
:102D30000121022403971B06002D14D01A6D1442A2
:102D4000FCD05D6540BF1A6D114203D120BF1A6DE2
:102D50001142FBD09A6DAA420AD000206D46820033
:102D6000AD58E9E79A6D1A6D1142FBD140BFE5E716
:102D700001300528F2D931000F20FDF71BFE07B006
:102D8000F0BDC0460B4B0C4A10B5934201D2012353
:102D90005B421900094A985004329B50084A094B7B
:102DA0000948CA50094B9A68044B9C466144FFF796
:102DB000A7FF10BD0008042064010420F4070000F0
:102DC000F52C0010FC070000F12C001000ED00E0D5
:102DD000F8B53423DE4657464E4645469846E0B59C
:102DE0000500804440468A46914600F06DFA28006E
:102DF0003C3000F063F9594B2E002F1D3C009B46E0
:102E00004036012000F0C0FB2060012000F0BCFB38
:102E100060603268E96B131D9B00CB18A3605945B5
:102E200000D00832E26010340436A045E9D19C227B
:102E300000239D209200AB50083AAB508000043232
:102E4000AB500421534608222818FEF771FDA12338
:102E50009B00EC180822534604212000FEF768FD71
:102E6000A52080004B46082204212818FEF760FDAB
:102E7000A92080004B46082204212818FEF758FD9F
:102E80002B00012239002868683300F021FA2B005A
:102E9000002239002868E83300F01AFA2B0080225B
:102EA000693339002868FF33920500F0A7FA2B0038
:102EB000E933FF3300223900286800F09FFA03232A
:102EC000A1269A460023B600984617E09A00676844
:102ED00001339BB2D051994200D243462381AB5972
:102EE000BFF35F8F42461A608CF3108840BF012306
:102EF0005B429C46E2445346002B25D02B681B695D
:102F00005800C01840088000FFF7E0FC002821D0DE
:102F1000AB59EFF3108C72B61A68002AFCD0BFF3DD
:102F20005F8F23896289E1899A1A02D54F1CB946BD
:102F30004A449142CAD1AB59BFF35F8F42461A60EF
:102F40008CF3108820BFE3E73CBC90469946A2462C
:102F5000AB46F8BD0248FEF793FEC0460000205085
:102F6000F0430010012270B50C0011008368456920
:102F700099401300AB4015008669B5402B431500FE
:102F8000466AB5402B431500866AB5402B43456819
:102F9000AA40A0250A431343114AED05A9500B2C62
:102FA00010D0104A126851400F4A0B4013600F4B6B
:102FB0000F4958600C20FDF723FD01212000FDF78B
:102FC000F9FC70BD0B4A126851400B4A0B4013606C
:102FD000064B0A4918600B20FDF712FDEDE7C046CD
:102FE0000C0400001404005014140050C8230120E5
:102FF0004D0E00200404005004140050710E0020F7
:10300000F8B5A026F605B446060043688468D902E0
:10301000A4019B0163446444E8361E605C600424A0
:103020000700244D244A294011439C6019614369DB
:103030008669D9022940B6019B01293763441143AF
:103040006644FF371F605E609C601961436A06003A
:10305000D9020D402A430500816A9B018901493547
:1030600063446144FF351D6059609C601A61012210
:103070001300416844698B401100A1400B43416A31
:1030800004008A401343862261460125D2008B50FA
:10309000C16B40344C362A00236810339A404B6889
:1030A0001A42FCD00434A642F5D101213C3000F094
:1030B000CFF8F8BDFDFF1FFF39851F00F0B5DE46D4
:1030C000454657464E46E0B5040087B0594900686A
:1030D00000F0A2FA03000133C2011B031343564A56
:1030E000834613409A4610239C46A4446346A04658
:1030F0006062251D019343462968186800F074FA40
:10310000434603241F68EE682B68B44099460222A8
:103110002300B2403800494600F0F0FA01222300B3
:1031200052423800494600F02BFB444B3000FC185B
:10313000631E9C4106342100FDF74AFB2100701CF0
:10314000FDF746FB80235B020293534603938023E3
:10315000B602DB051E433A4B38005A4649460493F3
:1031600002AB059600F050FB494601228A403B68BD
:1031700080269343334A3B6020274346944671247C
:10318000E868D95D830063441A68760122403343BE
:103190001A60FDF735FBEB682A4A581C43469446F3
:1031A000D95D830063441A68334314401C60FDF703
:1031B00027FB019B04359D429DD14446E5692A07C2
:1031C000520F93009B18204A9B00944600226344B0
:1031D0001A609A60DA6009321A6107325A600C3A52
:1031E0001A601A4ADA606B1C1CD0164BAF009C4662
:1031F0002023994651339846674428000421FDF75F
:10320000E7FA4B464246E15C3B6828001340320037
:103210003A431360FDF7F4FAE369013501330437EB
:10322000AB42EAD207B03CBC90469946A246AB46B8
:10323000F0BDC04610440010FFFFFF9F0000E0AF4C
:1032400000000E6804C001400000054005000500B4
:1032500001231A0030B544688568A2401C00AC40C8
:1032600014431A00C568AA402243002914D08021C3
:103270000468890121430A60C2691207510F8A005C
:103280005218104992008C46624411688B43802189
:1032900049010A43136030BDC021046889012143FC
:1032A0000A60C2691207510F8A005218054992003C
:1032B0008C46624411680B40802149010A43136027
:1032C000E9E7C04600000540002303600371704732
:1032D000F0B5047857464546A246DE464E460124E0
:1032E000E0B555466C40057D83B0954204D102227D
:1032F00055461543AA4614433B4EA4004268341970
:1033000000941C604C68019252088F689A60E20237
:10331000364C5F60A0462240CC68E503344C2A431B
:10332000A44622400C68E5022A435546AD00AA4651
:10333000304CB24414435546A146DC6084681D619C
:1033400065089D614D46DD61C5685F61AA46009DC7
:103350005F621D6255466D089D62274D2A40992582
:103360002A434D46A146DA620269DD63454600986C
:103370005F63186301988F695208484404009A6398
:103380001E645F6448695444C0022840CD696408E3
:10339000ED03284365469C6428400D695F658F6A8C
:1033A0009C664446ED022843124D1E652843D864AE
:1033B000D865486A9A65C0022040CC6A096AE4036D
:1033C00020436446C902204001430D431E665F66E8
:1033D000DD661E675F679A67DD6703B03CBC904699
:1033E0009946A246AB46F0BD60110020FD7F00FF6C
:1033F000FF87FFFF99002000FFFFDFFFF0B54E467B
:103400004546DE465746E0B501250678047D754001
:10341000002C02D1023426432543544CAD00A4466F
:1034200044686544A0468C68514FA4465C6044469D
:1034300064089C604C68B600E4023C40CF681D60A4
:10344000FF033C434B4F3C400F68FF023C434A4F55
:103450002743B946DF608768BA46444FBB465E449F
:103460001E6166465E61564676089E614E46DE6186
:10347000C6681D626546B3465D62750899269D6201
:103480003E4D254035434646DD62564405695E445F
:1034900076086D08002A52D06046586338481A638F
:1034A00004439D63DC63CC694869A046304FC00289
:1034B000384047460C69FF03A44638432D4F2B4C38
:1034C00038406746FF0238432B4F1C648C69074322
:1034D0005C649E64DF64002A40D0AF00BC46944424
:1034E00067465C65264C1F6520439D65D865CC6AA0
:1034F000486AA0460C6AA4461C4C1C668C6AC10231
:103500001B485C6601404046C003014319489E6663
:1035100001406046C002014317480843D866002AAC
:1035200015D0E80012181A67154A5C6711439D67A9
:10353000D9673CBC90469946A246AB46F0BD1148BF
:103540009D631863604658634846D863ABE70D4AED
:103550005C6708321A679D67D867EAE709485C65C7
:10356000043018659D65DF65C1E7C0466011002025
:10357000FD7F00FFFF87FFFF99002000FFFFDFFFB7
:10358000190020009C11002000B5054B83B00100FC
:10359000009300220B230348FDF79CF903B000BD04
:1035A0001C4400100C24012003680B6043684B602E
:1035B00083688B60C368CB6003690B61C36A4B612E
:1035C000036B8B617047C0460B6803604B684360B8
:1035D0008B688360CB68C3600B6903614B69C3620E
:1035E0008B6903637047C046074B10B5984204D0FF
:1035F000064A0748FDF74AF910BD064A0448043157
:10360000FDF744F9F8E7C046000030506044001070
:103610000F2401203C440010F0B5DE4645465746D5
:103620004E46E0B5060083B00D00FDF719F9304BAA
:103630002F79F1184B4259412E4B052498468B00A7
:103640009B4643465A469B5820229C460123BB403A
:1036500001902C57013BD21B002C32DB944243DCFF
:10366000A34062461A423FD19946002F18D06B788A
:103670002A781B021A43AB781B041343EA7812061C
:103680001A439246002351465A008D5A6A0B00D1C4
:103690002D191A1912329200013395519F42F2D816
:1036A00063464A4659461343424601985350FDF734
:1036B000E3F8200003B03CBC90469946A246AB46D6
:1036C000F0BD002A10DB19006046914014008946C5
:1036D000014207D1C9E718006146904014008146B5
:1036E0000842C2D0013AF6D20348FEF7C9FAC046F2
:1036F0000000D0AF482301207C440010F0B5DE4626
:1037000057464E4645461C004B00E0B58B461D0013
:1037100084465D44ED0065442E0085B0DC3603939D
:103720003368170002900193002C19D08023DB042A
:103730009A4601239946E0231B029846D83520007B
:10374000FEF750FD52464301134333603B004A46A7
:10375000C3401340424613432B60631E1C40EED10E
:10376000039B5B44D800029B9C46019B6044DC3079
:10377000036005B03CBC90469946A246AB46F0BDFE
:10378000F0B5DE4657464E4645461C004B00E0B5B8
:103790008B461D0084465D44ED0065442E0085B0D7
:1037A000DC3603933368170002900193002C18D085
:1037B0008023DB049A4601239946124BD83598465C
:1037C0002000FEF70FFD52464301134333603B00D8
:1037D0004A46C3401340424613432B60631E1C40BD
:1037E000EED1039B5B44D800029B9C46019B604446
:1037F000DC30036005B03CBC90469946A246AB461F
:10380000F0BDC04680E00000F0B501258D400468A1
:10381000AC434D0004606C18E40004192600C8365F
:10382000002B2AD01F68DC3437605F6877609F68A0
:10383000DB68B76023606B18DB001D008024D03587
:10384000451964012C4380252D0625602560114C07
:103850000D1D8C40846001242700AF403D000831DD
:103860008C401F2106680A403543056005682C43DB
:103870000460C018D8300260F0BD80277F02376036
:10388000F8277F027760C027DC343F03B7602360EE
:10389000D1E7C04601010101030010B50A00034948
:1038A0000868190000F004F810BDC0469419012002
:1038B00010B5514300F034F8041E0ED00300083B4D
:1038C0005A6803239A43043A242A15D80300132A7A
:1038D00005D800221A605A609A60200010BD0021AD
:1038E0000833016041601B2AF3D98160C160242A3A
:1038F00006D003001033ECE70021FFF72DF8ECE7CA
:103900000300016118334161E3E7C04610B5034B82
:103910000100186800F004F810BDC0469419012099
:10392000F0B54E464546DE465746E0B50D000B3530
:10393000060083B0162D22D8102900D9B2E000F07D
:10394000AFFA102502201823CB4FFB181A005C6831
:10395000083A944200D1B5E0032362689A43130009
:10396000E268A168CA6091600122E31859683000DA
:103970000A435A6000F09CFA2000083095E00723C3
:103980009D4300D58EE0A94200D98BE000F088FA73
:10399000FC235B009D4200D2A5E1680A00D18BE0C8
:1039A000042800D978E138239846A80980443930A2
:1039B000C100B14F79184C680839A1420ED00323D9
:1039C0009C4604E0002ACBDAE468A14206D06246B5
:1039D000636893435A1B0F2AF4DD40463A003C6962
:1039E0000832944200D178E0032361689943894604
:1039F0000B00491B0F2900DD79E17A613A6100294A
:103A0000B2DA80229200914500D30EE15909DA081A
:103A100001238B40D2007968D2190B4391687B60F7
:103A2000E260A1609460CC600121821091409942D3
:103A300059D80B4205D103229043490004300B4270
:103A4000FBD003239846C3009946B944CC4682462E
:103A50006346DC68A44507D12AE1002A00DB33E194
:103A6000E468A44500D123E14246636893435A1BAE
:103A70000F2AF2DD01208046611905436560A068C8
:103A8000E5680837C560A86040461043F960B96032
:103A90004860CF6030008F60E25000F009FA2000EB
:103AA000083002E00C230020336003B03CBC904699
:103AB0009946A246AB46F0BD80213F234020984660
:103AC000890076E7DC680230A34200D044E73A0080
:103AD0003C690832944200D086E701217B6882105D
:103AE00091409942A5D90323BC6862689A439146E4
:103AF000954203D8531B0F2B00DD88E023004B4475
:103B00005E4A01935E4B93461B681268EB180132C4
:103B100000D13BE15B4A944663441B0B1B030093BB
:103B20003000009900F0E6F903008046013300D12F
:103B3000F8E0019B834200D9F2E0534B19009A460A
:103B40000968009B8C46514663440B6001991A003A
:103B5000814200D150E15B461B68013300D155E141
:103B6000434601995B1A9A1853461A600723424646
:103B700041461A400192194200D111E108239846AA
:103B8000881A424B0099804441449B1A5B1A1B05DA
:103B90001B0D0091300019009B4600F0ABF9431C4F
:103BA00000D14FE14346C01A03005B4400935346E3
:103BB00052461B6801215B44136042464046BA608E
:103BC000009A0A434260BC4200D123E14A460F2AD0
:103BD00000D821E107200C3A8243606801400520AB
:103BE00011436160A118486088600F2A00D934E150
:103BF00042464446526826490868984200D20B6003
:103C000024490868984200D38EE00B608CE00122C2
:103C1000290013431143651961603000BD606B607A
:103C200000F046F9200008303FE75A0A042A71D90B
:103C3000142A00D9C4E011005C325B31D2000823A1
:103C40005B429C46BA18944463469A68032398469C
:103C5000944500D19DE0434651689943494502D9B6
:103C600092689445F7D1D3689C467B686146A26010
:103C7000E1608C60D460D7E6C01D0120C82101201E
:103C8000442301200F10000014230120081000001D
:103C90003C23012040230120142852D9542800D964
:103CA00096E06E239846280B80446F30C10080E672
:103CB00008239B46073BDC449B46DA444346524676
:103CC000134200D0C4E64CE00122E31859683000EA
:103CD0000A435A60E368A268D3609A6000F0E8F88B
:103CE00020000830E1E62B00E80808332CE6012329
:103CF00060191D43656078613861C26082601A0096
:103D00004B460A4342603000E15000F0D1F82000F9
:103D10000830CAE69A09110039323831D2008EE7EC
:103D2000BC4260D0BC68626803239A43531B95422F
:103D300002D80F2B00DD6AE7300000F0B9F8002050
:103D4000B3E65B23984680445C30C10031E608232B
:103D50005B429C46E1444B469B6801384B4500D092
:103D600098E043460342F2D17B688B437B60490075
:103D7000994200D9B7E6002904D1B4E6042294465A
:103D80004900E2440B42F9D050465CE61033009300
:103D9000C6E68910023B8B4079680B437B6065E780
:103DA000009B300043445B421B051B0D19009B46E2
:103DB00000F0A0F8431C00D0F4E600239B46F6E692
:103DC000542A2BD81A0B11006F326E31D20036E70D
:103DD000AA235B0098422BD8DD3B9846E80B804431
:103DE0007830C100E5E52C4B009A9A461B689C464A
:103DF000534662441A60AEE6090500D0ABE6009A6D
:103E0000BC684A4401310A436260F4E65B464246BC
:103E10001A60ABE64446EEE641608DE7AA21490010
:103E20008A4224D8DA0B110078327731D20006E7C3
:103E30001A4B984224D87C239846A80C80447D30A5
:103E4000C100B6E5009A019B94464246083B634494
:103E50009B1A009300239B46A9E6210030000831FD
:103E600000F0D6F85346BC681B686268C3E60B498D
:103E70008A420BD89A0C11007D327C31D200DEE6EA
:103E8000FE217E237F209846890092E5FE227E2136
:103E90009200D4E67B686AE71423012054050000F1
:103EA00010B5024800F096F910BDC046503F012001
:103EB00010B5024800F090F910BDC046503F0120F7
:103EC000094B10B51C68094AA83420686168084B82
:103ED000FEF79AFC0122002380185941206061609E
:103EE0004800400810BDC046941901202D7F954C14
:103EF0002DF45158002370B5064D040008002B60C6
:103F0000FDF7A2FE431C00D070BD2B68002BFBD038
:103F10002360F9E7643F012010B583070AD003004E
:103F2000032102E001330B4205D01A78002AF9D1AF
:103F3000181A10BD030019680C4A0D4C8A188A43E0
:103F400022420FD15968094A04338A188A4322420F
:103F500008D15968054A04338A188A432242F1D0AD
:103F600000E001331A78002AFBD1E1E7FFFEFEFEF4
:103F700080808080F8B50C000500FFF791FF204F8E
:103F8000BB685E6803239E431E4B341B9C466444FF
:103F9000240B013C113324039C4207DB0021280041
:103FA000FFF7A8FFBB689B19984204D02800FFF7D1
:103FB0007FFF0020F8BD28006142FFF79BFF431CF4
:103FC0000DD00122BB68361B16435E600E4B2800E5
:103FD0001A68141B1C60FFF76BFF0120EAE7002141
:103FE0002800FFF787FFBA68831A0F2BDEDD074929
:103FF0000968401A0449086001210B435360D5E762
:10400000C01D0120EF0F000014230120C821012052
:10401000F0B5C64605000C0000B500294FD0FFF7EB
:104020003FFF210008394C68012622000320B243DB
:104030008F187B688343624898468368BB426BD085
:1040400043467B6026421ED108239C460C6884446C
:10405000091B12198C6864454FD0CB68E3609C60E3
:104060004346FC186468344211D1BB68554C424445
:10407000A34200D17FE0FC68DC60A360012313430E
:104080004B608A5006E0FC1864683442EDD0164359
:104090004E603A6080239B009A4213D25409D308A1
:1040A0000122A2404468DB00224342601818836862
:1040B000C8608B608160D9602800FFF7F9FE04BCFE
:1040C0009046F0BD530A042B3FD89409260039349A
:1040D0003836E40004192368083C03279C4243D087
:1040E0005868B843904202D99B689C42F8D1DC687A
:1040F000CC608B60A160D960DEE74346F818406869
:10410000304258D11300B868FA6843441E43C26075
:1041100090604E60CB50CFE713004344264206D157
:104120000A68891A8C689B18CA68E2609460012248
:104130001A434A60244A816012689A42BCD8234BD1
:1041400028001968FFF716FFB6E7142B07D9542B80
:104150001AD8140B26006F346E36E400BAE71E003E
:104160005C335B36DC00B5E70122B610B24046682E
:1041700032434260BCE7D9609960CB608B60012319
:1041800013434B608A5097E7AA246400A34205D8E2
:10419000D40B260078347736E4009BE70C4CA3421E
:1041A00005D8940C26007D347C36E40092E7FE248A
:1041B0007E26A4008EE7330013434B603A607BE712
:1041C000C01D0120C81D0120CC2101204423012055
:1041D000540500007047C0467047C046F8B5C04659
:1041E00001B40248844601BC604700BF19090020A1
:1041F00001B40248844601BC604700BF811400201E
:1042000001B40248844601BC604700BF950E0020FF
:1042100001B40248844601BC604700BF81140020FD
:1042200001B40248844601BC604700BFD1080020A9
:1042300001B40248844601BC604700BFC1000020B1
:1042400001B40248844601BC604700BF89080020D1
:10425000436F6E6669677572696E672044564900E0
:10426000436F726520312073746172740000000026
:10427000416C6C6F636174696E67207363616E6C0F
:10428000696E652062756666657273005379737432
:10429000656D20636C6F636B206F66202575206BE6
:1042A000487A2063616E6E6F742062652065786164
:1042B00063746C79206163686965766564000000E9
:1042C00053746172742072656E646572696E670002
:1042D000486172647761726520616C61726D20253E
:1042E0006420616C726561647920636C61696D65DD
:1042F000640000000A2A2A2A2050414E4943202AFD
:104300002A2A0A000A00000048617264206173735F
:10431000657274004F7574206F66206D656D6F72E5
:104320007900000052656C6561736500626F6F749F
:10433000325F77323571303830000000312E342E44
:10434000300000007069636F0000000073707269D4
:1043500074655F626F756E6365000000417567206C
:10436000313220323032320006005250BBFF3CB6B0
:104370004443001006005250E182887F2C43001015
:1043800006005250D3F07542244300100D0A00007D
:104390005541525420737464696E00005541525463
:1043A000207374646F7574005541525420737464A3
:1043B000696E202F207374646F757400060052506C
:1043C00053B4F4A1A843001008005250920000001A
:1043D000544D44532066726565207175657565207E
:1043E00066756C6C20696E204952512100000000F6
:1043F000544D44532062756666657220616C6C6F23
:10440000636174696F6E206661696C6564000000A9
:104410001844001002000000A170A1684E6F2044F3
:104420004D41206368616E6E656C7320617265201A
:10443000617661696C61626C6500000050494F20D3
:104440003120534D20282564202D20342920616CF3
:10445000726561647920636C61696D656400000058
:1044600050494F203020534D20256420616C7265E7
:1044700061647920636C61696D6564004E6F2070C2
:10448000726F6772616D2073706163650000000078
:10449000B4020010A80200109C0200106843001033
:1044A000900200107443001080430010BC430010C1
:0444B000C8430010ED
:1044B400F0B5DE4657464E4645460123E0B5A9B061
:1044C4002593C32292009446E04B002563441F00C9
:1044D400DF4827A901F0F0F9A022DE49279852000D
:1044E40001F0ACF8D94E3400A02321002A0027980B
:1044F4005B000C3401F048F9BC42F5D1D64827A939
:10450400013501F0D1F9F02DE2D1D44BD44A9846CB
:10451400D44BB2469946D44B1A922293D34B1C9354
:104524005BE013001D990A00D22900DC79E1D22254
:104534001B99994202D11D9991423BD051460B805F
:104544004A8001F0C1F90325C3179B0FC018054029
:10455400ED1A6E1C01F0B8F9030400D4EE4343468F
:104564001E6001F0B1F90325C3179B0FC018054065
:10457400ED1A6E1C01F0A8F9030400D4EE434B4677
:104584001E6001F0A1F90325C3179B0FC018054055
:10459400ED1A6E1C01F098F9030400D4EE431C9B41
:1045A40052461E6043461B68DB0F93724B461B68E2
:1045B400DB0FD3720C239C46083BE2449C46229BAF
:1045C400E044013322931C9BE14463441C931A9BF3
:1045D40018331A93574500D129E1424653461268CD
:1045E4001B889446524663441BB213801B93538822
:1045F4004A4612685146944663441AB24A801C994A
:104604001D920968229A8C46137899496344DBB257
:1046140013709A008A5840339346FF2213409B003C
:10462400CB581E93DB171F931E9D1F9E280031003D
:104634006A0FDC001443EA0001940092009A019B83
:1046440012184B41510FDC000C433100D20003948B
:104654000292029A039B12184B41D10D580208434F
:104664005102059004910498059912184B4192182F
:104674005B4111001B04090C19430A040B0C1B04B5
:10468400140C1C435B465B420693DB17079324948C
:10469400D800069C079D620F2B001043220009904E
:1046A400E0000890089C099DA4185D412200600F59
:1046B400ED000543D0000A900B95069A079B0A9CCF
:1046C4000B9DA4185D4122002B00E00D6D020543F3
:1046D40050020C900D950C9C0D9D12196B41921873
:1046E4005B410D0F1400AC46CE171B04200C18437D
:1046F400350133006646C21723920A003543090187
:104704000E910F950E9C0F9D121BAB419504AC4668
:1047140064469904960B0E43210C0A0033041A4391
:104724005B462093DB172193209D219E9446D9005C
:104734006A0F11431191E9001091109A119B5219BB
:104744007341510FDC000C43D10013941291129A5F
:10475400139B52197341D10D5D020D435102149103
:104764001595149C159D12196B4192185B4111000B
:104774001B040E0C1E43020C03041A99239D1204FD
:104784001B0C13434B6002002B00249C2D010C6076
:10479400010F0D4300011795169016981799121AD8
:1047A4008B411000850433489B048346920B1A43C3
:1047B40013042A0C1A431A9962445A448A60330433
:1047C400320C12041B0C13430C61F417CB6022014E
:1047D400330F1A43199232012300189232001898A9
:1047E4001999121A8B411C00900BA10408439504DB
:1047F40003042A0C1A431A9962445A444A611B9AC4
:10480400130091225200934200DD8AE61B9A64321F
:1048140000DB87E664231D995B420A00D22900DD90
:1048240085E6643100DB83E66422524280E6259B00
:10483400013325931E2B00D043E6D02380221B0690
:104844009203DA61002325933BE6C0461C2601202F
:10485400102C0120FF070000002C0120142401204B
:10486400242D0120202C0120282901201825012095
:1048740088040020F0FF3F0000000000480600000C
:104884008F0C0000D512000017190000561F0000FD
:1048940090250000C42B0000F131000017380000FF
:1048A400333E000047440000504A00004D500000D1
:1048B4003E560000225C0000F7610000BD67000066
:1048C400746D000019730000AD7800002E7E0000A6
:1048D4009C830000F5880000398E00006893000076
:1048E4007F9800007F9D000067A2000036A70000AB
:1048F400EBAB000085B0000004B5000068B900000F
:10490400AEBD0000D8C10000E4C50000D1C900005C
:104914009FCD00004DD10000DBD4000048D800003A
:1049240094DB0000BEDE0000C5E10000AAE4000044
:104934006BE7000009EA000083EC0000D8EE0000F9
:1049440009F1000014F30000FAF40000BAF60000C4
:1049540053F80000C7F9000014FB00003BFC000002
:104964003AFD000013FE0000C4FE00004EFF0000EC
:10497400B1FF0000ECFF000000000100ECFF0000AC
:10498400B1FF00004EFF0000C4FE000013FE000053
:104994003AFD00003BFC000014FB0000C7F90000D6
:1049A40053F80000BAF60000FAF4000014F3000013
:1049B40009F10000D8EE000083EC000009EA0000D1
:1049C4006BE70000AAE40000C5E10000BEDE0000C1
:1049D40094DB000048D80000DBD400004DD1000077
:1049E4009FCD0000D1C90000E4C50000D8C100007B
:1049F400AEBD000068B9000004B5000085B0000039
:104A0400EBAB000036A7000067A200007F9D00000A
:104A14007F98000068930000398E0000F58800003C
:104A24009C8300002E7E0000AD7800001973000006
:104A3400746D0000BD670000F7610000225C000097
:104A44003E5600004D500000504A0000474400000C
:104A5400333E000017380000F1310000C42B000081
:104A640090250000561F000017190000D512000001
:104A74008F0C00004806000000000000B8F9FFFF9A
:104A840071F3FFFF2BEDFFFFE9E6FFFFAAE0FFFF55
:104A940070DAFFFF3CD4FFFF0FCEFFFFE9C7FFFF33
:104AA400CDC1FFFFB9BBFFFFB0B5FFFFB3AFFFFF41
:104AB400C2A9FFFFDEA3FFFF099EFFFF4398FFFF8C
:104AC4008C92FFFFE78CFFFF5387FFFFD281FFFF2C
:104AD400647CFFFF0B77FFFFC771FFFF986CFFFF3C
:104AE4008167FFFF8162FFFF995DFFFFCA58FFFFE7
:104AF4001554FFFF7B4FFFFFFC4AFFFF9846FFFF63
:104B04005242FFFF283EFFFF1C3AFFFF2F36FFFFF4
:104B14006132FFFFB32EFFFF252BFFFFB827FFFFF6
:104B24006C24FFFF4221FFFF3B1EFFFF561BFFFFCC
:104B34009518FFFFF715FFFF7D13FFFF2811FFFFF7
:104B4400F70EFFFFEC0CFFFF060BFFFF4609FFFF0C
:104B5400AD07FFFF3906FFFFEC04FFFFC503FFFFAE
:104B6400C602FFFFED01FFFF3C01FFFFB200FFFFA4
:104B74004F00FFFF1400FFFF0000FFFF1400FFFFC2
:104B84004F00FFFFB200FFFF3C01FFFFED01FFFFFD
:104B9400C602FFFFC503FFFFEC04FFFF3906FFFF5A
:104BA400AD07FFFF4609FFFF060BFFFFEC0CFFFFFD
:104BB400F70EFFFF2811FFFF7D13FFFFF715FFFF1F
:104BC4009518FFFF561BFFFF3B1EFFFF4221FFFF0F
:104BD4006C24FFFFB827FFFF252BFFFFB32EFFFF39
:104BE4006132FFFF2F36FFFF1C3AFFFF283EFFFF15
:104BF4005242FFFF9846FFFFFC4AFFFF7B4FFFFF37
:104C04001554FFFFCA58FFFF995DFFFF8162FFFF44
:104C14008167FFFF986CFFFFC771FFFF0B77FFFFF2
:104C2400647CFFFFD281FFFF5387FFFFE78CFFFF08
:104C34008C92FFFF4398FFFF099EFFFFDEA3FFFF57
:104C4400C2A9FFFFB3AFFFFFB0B5FFFFB9BBFFFFC2
:104C5400CDC1FFFFE9C7FFFF0FCEFFFF3CD4FFFF2D
:104C640070DAFFFFAAE0FFFFE9E6FFFF2BEDFFFF8D
:104C740071F3FFFFB8F9FFFFD02330B500251B0601
:104C840000245D5706E00368BFF35F8F1C6081F367
:104C9400108820BF0268EFF3108172B61368002BEE
:104CA400FCD0BFF35F8F03797F2BECD905710368C8
:104CB400BFF35F8F00221A6081F3108830BDC046B5
:104CC400030010B50068EFF3108472B60268002A7E
:104CD400FCD0BFF35F8F04229A56002A0BDB002915
:104CE4000FD000200A601B68BFF35F8F00221A6098
:104CF40084F3108810BDD0221206126801201A71A4
:104D0400F1E70020EFE7C0460268EFF3108172B6C6
:104D14001368002BFCD0BFF35F8FFF23037103687C
:104D2400BFF35F8F00221A6081F3108840BF704781
:104D3400F8B50100DE4657464E4645460400E0B548
:104D44000068343100F0D8FB9B239B00E358002B10
:104D54002ED0A1239B00E358EFF3108572B61A6896
:104D6400002AFCD0BFF35F8FA1239B00E1180B89BD
:104D74004A89C8899A1A00D535E1824200D1DDE119
:104D84009B229200A6584F689A00D6510022160022
:104D940001339BB298425641704203400B81A123D8
:104DA4009B00E358BFF35F8F1A6085F3108840BF00
:104DB4009A239B229B00E1589200A1500022E250CA
:104DC400A268236891018B4A1B6994465B0861447D
:104DD4000A689342FCD1A2699101864A94466144CF
:104DE4000A689342FCD1A26A9101824A94466144C2
:104DF4000A689A42FCD19D229C23920092469B0011
:104E0400E258A244002A00D179E09D229200934600
:104E1400103215009846A11818E0814660469A00A1
:104E24004F6801339BB2D051B3425AD9002263591F
:104E34000A81BFF35F8F1A6089F3108840BF43462D
:104E44004246E358013BA350002B58D05B46E05840
:104E5400EFF3108272B60368002BFCD0BFF35F8FB0
:104E6400534650465B890089C01A03D55646F689D5
:104E74000136801900283AD0564676689800805941
:104E84000027002684465C480133205A9BB298428E
:104E9400774178420340504643815B46E358BFF371
:104EA4005F8F1E6082F3108840BF6359EFF3108058
:104EB40072B61A68002AFCD0BFF35F8F0B894A8947
:104EC400CE899A1A02D5771CB9464A449642A4D18F
:104ED4006359BFF35F8F00221A6080F3108820BFEC
:104EE400E3E70B816359BFF35F8F0022A3E79D23A0
:104EF4009B00E358BFF35F8F186082F31088382358
:104F0400E35C032B00D17DE0012B39D0A026F6050C
:104F1400B44626006368A568D902AD019B016344C9
:104F24006544E8361E605D60042527003348344A32
:104F3400014011439D6019616369A669D90201406A
:104F4400B6019B012937634411436644FF371F6050
:104F54005E609D601961636AD9020840A16A9B0181
:104F640089014934634402436144FF341C6059603D
:104F74009D601A613CBC90469946A246AB46F8BD7A
:104F8400A026F605B44626006368A568D902AD01DB
:104F94009B016344654468361E605D6004252700F8
:104FA4001648174A014011439D6019616369A66957
:104FB400D9020140B6019B01634411436644A837FA
:104FC4001F605E609D601961636AD9020840A16A2E
:104FD4009B018901634402436144C8341C605960E5
:104FE4009D601A61C6E7461C9219824200D0C7E64A
:104FF400A4E0C0460408005082020000FDFF1FFF29
:1050040039851F009D239B00E258EFF3108072B690
:105014001368002BFCD0BFF35F8F9D239B009A463F
:10502400A24453465A891B899B1A00D5EAE0002BF7
:1050340000D18FE051469D2349689B00920051584E
:10504400E258BFF35F8F0025156080F31088626B10
:10505400D2072ED51900002655466358EFF3108069
:1050640072B61A68002AFCD0BFF35F8F6B892A8955
:10507400D21A00D5CBE000D1CFE069689A0051582C
:105084006A4AAA46A55A0022160001339BB29D42E1
:10509400564175422B4055466B819D239B00E35836
:1050A400BFF35F8F1A6080F3108840BF9A239B0080
:1050B400E1503823E35C012B00D161E7032B00D0DE
:1050C40024E700295ED02600A0276936FF36320087
:1050D4002068FF0500F032FABC466368A068D90274
:1050E40080019B01634460441E60586004202700D3
:1050F4004F4D504A29401143986019616369A6696C
:10510400D9022940B6019B01A9376344114366447F
:10511400FF371F605E6098601961636AD9020D40B1
:105124002A432500A16A9B018901C935634461446E
:10513400FF351D60596098601A6159E0A1239B00F6
:10514400E358BFF35F8F00221A6085F310883A4852
:1051540000F092FB9D229200A258BFF35F8F136070
:1051640080F31088636BDB0704D59C229200A3585C
:105174000133A3503823E35C012B00D100E7032B58
:1051840000D0C3E6A026F605B44626006368A068EE
:10519400D90280019B01E93663446044FF361E60F6
:1051A400586004208A27224D224A294011439860DE
:1051B40019616369A669D9022940B6019B01BF0040
:1051C400634411436644E7191F605E609860196187
:1051D400636AD9020D402A439225A16A9B01890181
:1051E400AD006344614465191D60596098601A619B
:1051F400636E002B00D1BDE6626BD20700D4B9E622
:105204009847B7E65146C98901315B180FE7EF8922
:105214000137BA18002A00D02FE76358BFF35F8F15
:105224001E6080F3108820BF17E7C046820200008A
:10523400FDFF1FFF39851F00D0430010064BA0213E
:1052440058680123826810B59340044AC9058B50FD
:10525400FFF76EFD10BDC046C82301201C040000EA
:10526400064BA02118680123826810B59340044AB4
:10527400C9058B50FFF75CFD10BDC046C823012053
:105284000C040000A523F0B557464E46DE464546BD
:105294009B009A46103B9B46103BE0B5C618303342
:1052A40099468144040000254F4687B082448344D4
:1052B400A5239B00E358EFF3108172B61A68002A05
:1052C400FCD0BFF35F8F534652465B891289D21AD2
:1052D40000D5FCE000D101E1504640689A00125824
:1052E40028009146824A0133A25A9BB29A426841ED
:1052F4004242134052465381A5239B00E358BFF317
:105304005F8F1D6081F3108840BFA1205B46800041
:1053140003962258EFF3108C72B611680029FCD062
:10532400BFF35F8F59891A89521A00D5BEE000D1A4
:10533400C5E09B468A000B00594649680133505822
:1053440029006C4A9BB2A25A039E9A4269414A427E
:1053540013405A465381A1239B00E358BFF35F8F48
:105364001D608CF3108840BF236801001B69039003
:105374005B089846484604234246009500F00CF921
:1053840043469B009C46049305230398424660448D
:105394000100009305900533484600F0FDF8049B96
:1053A40005989C460B236044010000934246043355
:1053B400484600F0F1F89D239B009C466346E35861
:1053C400EFF3108072B61A68002AFCD0BFF35F8F27
:1053D400338904937289F1899A1A02D54B1C984631
:1053E4004244914250D08846049B71688446039895
:1053F4009A0050502A00414601339BB299426A41B7
:105404005242134033819D239B00E358BFF35F8FC7
:105414001D608CF3108840BFA9239B009C46634603
:10542400E358EFF3108172B61A68002AFCD0BFF378
:105434005F8F3B8903937A89F8899A1A02D5431CB2
:1054440098464244904228D084464846039B884666
:1054540079689A0050502A00614601339BB2994200
:105464006A41524213403B81A9239B00E358BFF396
:105474005F8F1D6088F3108840BFA5239B00E3580D
:10548400EFF3108172B619E76346E358BFF35F8FF9
:105494001D6080F3108820BF90E76346E358BFF394
:1054A4005F8F1D6081F3108820BFB8E7DE89B046A6
:1054B4000126B346D8444244002A00D039E7225892
:1054C400BFF35F8F15608CF3108820BF21E750462F
:1054D400C08901308218002A00D0FDE6A5239B0074
:1054E400E358BFF35F8F1D6081F3108820BFDFE6B0
:1054F400A2020000920200000B680A7901330B60DB
:10550400002A03D18069834205D07047012A09D15A
:10551400C0698342F9D1032301321A4000230A717E
:105524000B60F2E7022A03D1006A8342EDD1F2E76D
:10553400032AEAD1406A8342E7D1ECE700691163A8
:1055440043089B008000CB18091813651167704746
:1055540054530D00ABAC020054510500ABAE0A002D
:105564000000000010000000600000003000000097
:1055740080020000000000000A0000000200000099
:1055840021000000E001000060D8030000FD0700D6
:1055940000FD070001FA0B00F0B5C6461C0000B57B
:1055A400234D88B006000F00280001A9904600F0A2
:1055B40073F90E9A0732E31F23D4F821121B8900D2
:1055C40052010A401F210B40134318000934E02301
:1055D40021400A438E215B010343EB624902154BD0
:1055E4000A432A633900AB6042463000EB603EF068
:1055F400FFFE0F4801A900F047F908B004BC90462B
:10560400F0BD141BF822640192001440E022520100
:105614002243EA62084A39001443064A2C633000E4
:10562400AA605B42EA6042463EF0FAFEE1E7C04609
:10563400800000D064000420101C01000F2A16D83A
:105644000AA352009B1A01331847C046C1838183C1
:1056540041830183C182818241820182C18181812E
:1056640041810181C1808180418001807047F0B512
:10567400930802D301800230013A520012181A3AF8
:1056840094460A0411430A460B460C460D460E4640
:105694000F46FEC06045FCD31A226244121A120758
:1056A40000D3F0C0520000D330C0520000D310C069
:1056B400520000D30480F0BD8B0804D30B88038010
:1056C40002300231013A52001218103A94460EE0A8
:1056D4000CC90280120C428083801B0CC3800CC94D
:1056E4000281120C428183811B0CC38110306045FE
:1056F400EED96246121A520708D308C903801B0C5C
:10570400438008C983801B0CC3800830520004D333
:1057140008C903801B0C43800430520001D30B885A
:10572400038070478446D308DB005A405B0018446A
:10573400194413A3D2009B1A0133184710381039A7
:10574400CB899A0900D3C3818B899A0900D38381B9
:105754004B899A0900D343810B899A0900D30381A9
:10576400CB889A0900D3C3808B889A0900D383809D
:105774004B889A0900D343800B889A0900D303808D
:105784006045DBD87047C046F0B54646D6464F461E
:105794000125C0B50C7AA540A44602268C5F141BD3
:1057A4006A42144222D100228E5EF243D217324062
:1057B400971BBA46AF19B8469F4240DC43469A1A33
:1057C400002A13DDCB7A002B01D06B1E1C1B4B6807
:1057D400497A00290FD1002E01DB76008019614639
:1057E4008C40544464001919FFF79CFF1CBC90467C
:1057F4009946A246F0BD62469540A2006D00AD18E0
:10580400EA58550091466D0C55451CDB4A46414605
:105814001204891B120C8A4213DC521B002AE5DD98
:105824004946002918DB21006446A140761949192C
:105834007600490059188019FFF774FFD6E7984697
:10584400BCE70A00E9E74A46414612045546891B6B
:10585400120C8A42E1DDF4E721006446A140761986
:1058640049197600490059188019FFF725FFBDE74B
:105874007047C0460000000001B40248844601BCE1
:10588400604700BF811C001001B40248844601BC7B
:10589400604700BFC935001001B40248844601BC0A
:1058A400604700BFA935001001B40248844601BC1A
:1058B400604700BF5519001001B40248844601BC7A
:1058C400604700BFC919001001B40248844601BCF6
:1058D400604700BFC13E001000000000000000004F
:1058E40000000000000000000000000000000000B4
:1058F40000000000000000000000000000000000A4
:105904000000000000000000000000000000000093
:105914000000000000000000000000000000000083
:105924000000000000000000000000000000000073
:105934000000000000000000000000000000000063
:105944000000000000000000DFFFDBDED7BDF7BD74
:1059540075AD34A534A534A5B294F294F29434A56B
:1059640034AD75B5B6BDF6BD95ADB9C65DDF000005
:105974000000000000000000000000000000000023
:105984000000000000000000000000000000000013
:105994000000000000000000000000000000000003
:1059A40000000000000000000000000000000000F3
:1059B40000000000000000000000000000000000E3
:1059C40000000000000000000000000000000000D3
:1059D40000000000000000000000000000000000C3
:1059E40000000000000000000000000000000000B3
:1059F40000000000000000000000000000000000A3
:105A04000000000000000000000000000000000092
:105A14000000000000000000000000000000000082
:105A24000000000000000000000000000000000072
:105A34000000000000000000000000000000000062
:105A4400DFFF9EE73CE717C674AD708CEF83AE733F
:105A5400AE7B6D7BEE8BEE8B6D836D7BEF8B309429
:105A64003094308CB19C308CB18C74ADF6B5D7B514
:105A74009CCEDFFF000000000000000000000000DA
:105A84000000000000000000000000000000000012
:105A94000000000000000000000000000000000002
:105AA40000000000000000000000000000000000F2
:105AB40000000000000000000000000000000000E2
:105AC40000000000000000000000000000000000D2
